{
  "contractName": "PresidentElections",
  "abi": [
    {
      "inputs": [],
      "payable": false,
      "stateMutability": "nonpayable",
      "type": "constructor"
    },
    {
      "constant": true,
      "inputs": [],
      "name": "name",
      "outputs": [
        {
          "internalType": "string",
          "name": "",
          "type": "string"
        }
      ],
      "payable": false,
      "stateMutability": "view",
      "type": "function"
    },
    {
      "constant": false,
      "inputs": [
        {
          "internalType": "enum PresidentElections.Candidate",
          "name": "candidate",
          "type": "uint8"
        }
      ],
      "name": "vote",
      "outputs": [],
      "payable": false,
      "stateMutability": "nonpayable",
      "type": "function"
    },
    {
      "constant": true,
      "inputs": [
        {
          "internalType": "enum PresidentElections.Candidate",
          "name": "candidate",
          "type": "uint8"
        }
      ],
      "name": "getVotes",
      "outputs": [
        {
          "internalType": "uint256",
          "name": "",
          "type": "uint256"
        }
      ],
      "payable": false,
      "stateMutability": "view",
      "type": "function"
    }
  ],
  "bytecode": "0x60806040526040518060400160405280601881526020017f507265736964656e7420456c656374696f6e73203230323100000000000000008152506000908051906020019061004f92919061006e565b5034801561005c57600080fd5b50620151804201600181905550610113565b828054600181600116156101000203166002900490600052602060002090601f016020900481019282601f106100af57805160ff19168380011785556100dd565b828001600101855582156100dd579182015b828111156100dc5782518255916020019190600101906100c1565b5b5090506100ea91906100ee565b5090565b61011091905b8082111561010c5760008160009055506001016100f4565b5090565b90565b610541806101226000396000f3fe608060405234801561001057600080fd5b50600436106100415760003560e01c806306fdde03146100465780638953bb72146100c9578063b3f98adc1461010e575b600080fd5b61004e61013f565b6040518080602001828103825283818151815260200191508051906020019080838360005b8381101561008e578082015181840152602081019050610073565b50505050905090810190601f1680156100bb5780820380516001836020036101000a031916815260200191505b509250505060405180910390f35b6100f8600480360360208110156100df57600080fd5b81019080803560ff1690602001909291905050506101dd565b6040518082815260200191505060405180910390f35b61013d6004803603602081101561012457600080fd5b81019080803560ff169060200190929190505050610205565b005b60008054600181600116156101000203166002900480601f0160208091040260200160405190810160405280929190818152602001828054600181600116156101000203166002900480156101d55780601f106101aa576101008083540402835291602001916101d5565b820191906000526020600020905b8154815290600101906020018083116101b857829003601f168201915b505050505081565b6000600460008360018111156101ef57fe5b8152602001908152602001600020549050919050565b600154421061027c576040517f08c379a000000000000000000000000000000000000000000000000000000000815260040180806020018281038252600e8152602001807f566f74696e67206973206f76657200000000000000000000000000000000000081525060200191505060405180910390fd5b600260003373ffffffffffffffffffffffffffffffffffffffff1673ffffffffffffffffffffffffffffffffffffffff16815260200190815260200160002060009054906101000a900460ff166103ce576001600260003373ffffffffffffffffffffffffffffffffffffffff1673ffffffffffffffffffffffffffffffffffffffff16815260200190815260200160002060006101000a81548160ff02191690831515021790555080600360003373ffffffffffffffffffffffffffffffffffffffff1673ffffffffffffffffffffffffffffffffffffffff16815260200190815260200160002060006101000a81548160ff0219169083600181111561038057fe5b021790555060016004600083600181111561039757fe5b81526020019081526020016000205401600460008360018111156103b757fe5b815260200190815260200160002081905550610509565b6000600360003373ffffffffffffffffffffffffffffffffffffffff1673ffffffffffffffffffffffffffffffffffffffff16815260200190815260200160002060009054906101000a900460ff16905081600360003373ffffffffffffffffffffffffffffffffffffffff1673ffffffffffffffffffffffffffffffffffffffff16815260200190815260200160002060006101000a81548160ff0219169083600181111561047a57fe5b021790555060016004600083600181111561049157fe5b81526020019081526020016000205403600460008360018111156104b157fe5b8152602001908152602001600020819055506001600460008460018111156104d557fe5b81526020019081526020016000205401600460008460018111156104f557fe5b815260200190815260200160002081905550505b5056fea265627a7a723158201b6450bcbd8e365e8563e56475220b9166fc205121b42d36914da7ce573ae67364736f6c63430005100032",
  "source": "// SPDX-License-Identifier: MIT\npragma solidity >=0.4.22 <0.9.0;\n\ncontract PresidentElections {\n\n    string public name = \"President Elections 2021\";\n\n    enum Candidate {\n        DONALD,\n        BIDEN\n    }\n\n    uint votingEnd;\n    mapping(address => bool) private hasVoted;\n    mapping(address => Candidate) private votes;\n    mapping(uint => uint) private voteResults;\n\n    constructor() public {\n        // This voting lasts for just one day\n        votingEnd = now + 1 days;\n    }\n\n    function vote(Candidate candidate) public {\n        // 1. each address can vote one time\n        // 2. is able to change the vote\n        // 3. voting has an ending\n        // 4. some governing mechanism so that one\n        //   person cannot make infinite new addresses\n        // 5. handle overflow?\n        require(now < votingEnd, \"Voting is over\");\n        if (!hasVoted[msg.sender]) {\n            hasVoted[msg.sender] = true;\n            votes[msg.sender] = candidate;\n            voteResults[uint(candidate)] = voteResults[uint(candidate)] + 1;\n        } else {\n            Candidate previous = votes[msg.sender];\n            votes[msg.sender] = candidate;\n            voteResults[uint(previous)] = voteResults[uint(previous)] - 1;\n            voteResults[uint(candidate)] = voteResults[uint(candidate)] + 1;\n        }\n    }\n\n    function getVotes(Candidate candidate) public view returns (uint) {\n        return voteResults[uint(candidate)];\n    }\n}\n",
  "sourcePath": "/Users/kaspar/Code/ethereum-voting/contracts/PresidentElections.sol",
  "compiler": {
    "name": "solc",
    "version": "0.5.16+commit.9c3226ce.Emscripten.clang"
  },
  "schemaVersion": "3.4.1",
  "updatedAt": "2021-06-26T09:32:37.493Z",
  "networkType": "ethereum",
  "devdoc": {
    "methods": {}
  },
  "userdoc": {
    "methods": {}
  }
}